:020000040800F2
:10000000C80600203901000841010008430100082A
:1000100045010008470100084901000800000000F0
:100020000000000000000000000000004B0100087C
:100030004D010008000000004F01000851010008B8
:100040005301000853010008530100085301000840
:100050005301000853010008530100085301000830
:100060005301000853010008530100085301000820
:100070005301000853010008530100085301000810
:100080005301000853010008530100085301000800
:1000900053010008530100085301000853010008F0
:1000A00053010008530100085301000853010008E0
:1000B00053010008530100085301000853010008D0
:1000C00053010008530100085301000853010008C0
:1000D00053010008530100085301000853010008B0
:1000E000530100085301000853010008104800683C
:1000F0002F2801DD4FF02F000E494FF000024FF086
:100100000103002810D041F8042B41F8043B0128DA
:100110000DD04FF00204D51841F8045B1A462B4667
:10012000641C8442F7DD02E041F8042BFFE7FEE7A0
:1001300000000020080000200948804709480047C7
:10014000FEE7FEE7FEE7FEE7FEE7FEE7FEE7FEE787
:10015000FEE7FEE704480549054A064B70470000E4
:10016000AD020008ED000008C8000020C80600200D
:10017000C8020020C8020020704770477047000086
:1001800080B500F001F880BD84B00020039002909B
:1001900041F20001C4F20201086840F480300860B6
:1001A000FFE741F20000C4F20200006800F40030F2
:1001B0000290039801300390FFE70299002001901C
:1001C00039B9FFE70398B0F5A06018BF012001908E
:1001D000FFE70198C0070028E3D1FFE741F20000E4
:1001E000C4F2020000688003002803D5FFE7012065
:1001F000029002E000200290FFE70298012851D10E
:10020000FFE742F20001C4F20201086840F010006A
:100210000860086820F007000860086840F00200E5
:10022000086041F20401C4F202010091086808600C
:1002300008680860086840F480600860086820F476
:100240007C100860086840F4E810086041F2000182
:10025000C4F20201086840F080700860FFE741F2D4
:100260000000C4F2020000688001002801D4FFE70A
:10027000F5E741F20401C4F20201086820F003002E
:100280000860086840F002000860FFE741F20400DF
:10029000C4F20200006800F00C00082801D0FFE75B
:1002A000F4E700E0FFE704B07047000080B541F2DA
:1002B0000002C4F20202106840F00100106041F236
:1002C0000401C4F2020108680023CFF6FF031840BE
:1002D000086010684FF6FF73CFF6F66318401060A1
:1002E000106820F480201060086820F4FE00086088
:1002F00041F20801C4F202014FF41F000860FFF749
:100300003FFF4EF60851CEF200014FF0006008604A
:0803100080BD000005000000A3
:0400000508000139B5
:00000001FF
